:2000A300A2AF9205C2AF75C7AA75C755439F01A20592AFE4F508F509F50A900005F0F5103A
:2000C300C20022E4F50AF508F50922858212858313E4F50AF508F50974A42511400475829E
:2000E3000022851208851309850882850983E0F50A7469B50A0280467470B50A02803F7460
:20010300A0B50A02803C74A3B50A02803174ABB50A02802A74AEB50A7474012508FEE4359E
:2001230009FF8E638F6475650075660475670090000175F000120AA7D2007582012275829F
:20014300012274062508F50BE43509F50C120792AD0BAE0C7F00755250E4F553F554F5553D
:200163008D828E838FF01207A0E582FE701C900CC075F080C0061203A5AC0BAD0C7F008CF7
:20018300828D838FF01203A5D0068E8222900CD075F0801203A5850A8212040F1203A57519
:2001A30082002285270E85280F7F00C3EF9526505775AF21850EA6850FA7EF242DF9870610
:2001C3008EAE75C7AA75C75543A40175AF00EEB5AE02800280FE7443B59F0280FEAD0EAE16
:2001E3000F74012DF50EE43EF50F900003E0FDA3E0FEEDB50E0FEEB50F0B900CD975F0805B
:200203001203A580030F80A374052508FEE43509FF8E828F83E0602B850882850983A3A3B4
:20022300A3A3A3E0FF7E001FBFFF011EAC107D00ECB50706EDB506028009900CE275F080FC
:200243001203A5850882850983A3A3A3A3A3E0F510900CF175F0801203A585108212040F45
:200263001203A5758201227469B50A0302034C7470B50A0302035674A0B50A0302035A740D
:20028300A3B50A02801F74ABB50A0302033974AEB50A0280030203A1900CFF75F080120398
:2002A300A575820122900D0975F0801203A520000D900D1375F0801203A575820022A2AF51
:2002C3009205C2AF75C7AA75C75543A501A20592AF75AEFF75AF22E4F50EF50F900003E005
:2002E300FEA3E0A2E7CE33CE33CE5401FFAC0EAD0FC3EC9EED9F5031E50E75F080A4FF8FF3
:20030300A6AE0EE50F5401A2E0CE13CE13CEFF8FA775C7AA75C75543A401AE0EAF0F74019A
:200323002EF50EE43FF50F80B3900D2075F0801203A575820122900D2875F0801203A575E0
:20034300820012074A7582012275820212074A758201227582012220000D900D1375F08049
:200363001203A575820022E52C6030900D3875F0801203A5900002E0FF7E001FBFFF011EA7
:20038300AC107D00ECB50706EDB506028009900D4B75F0801203A5758201220201A67582FF
:2003A3000022AD82AE83AFF090000575F000C007C006C005120C1AAB82D005D006D0078D59
:2003C300828E838FF0C007C006C005C003120C1AAA82D003D005D006D007EA04FCC39B50A2
:2003E3000280078B027432C39AFCECFA601DEB2405FBE43400F97C008D638E648F658A6620
:200403008C678B8289838CF0020AA722AF827E007563648E648F828E83C007C006120C844E
:20042300AC82D006D00774302C900037F07563647564008F828E83C007C006120C4E75634F
:200443000A756400120C84AC82D006D00774302C900038F075630A7564008F828E83120CB6
:200463004EAE8274302E900039F090003AE4F0900037F5F02285821585831685F0179000AE
:200483000575F000120C1AAB82AA147C00EA24FFF8EC34FFF98B067F00C3E89EE964808F7E
:2004A300F063F08095F0500FE51414FB2405F582E43400F583E4F0AD15AE16AF177563055D
:2004C3007564007565008B007900740128F566E439F5678D828E838FF0C004C003C002C049
:2004E30001C000120AA7D000D001D002D003D004900005E4F0EA24FFFEEC34FFFFC3E89E80
:20050300E964808FF063F08095F05027EB2515FBE43516FFAE17EAC398FAEC99FCEA24FFDD
:14052300F564EC34FFF5657563008B828F838EF0020AFC2253
:200CC000696865785F7061727365722065727200556E6B6E436D643A006865784561726C5E
:200CE00079006865784C696E7320736B6970642E00466C61736864206C696E65232E005379
:200D0000544152545F5345530045524153455F414C4C004E6F74496E53657373696F6E00DA
:200D200045726173654F6B007265626F6F7420746F204150524F4D00416C6C206865784C12
:200D4000696E657320726563762E004E6F7420616C6C204865784C696E7320666C61736853
:020D600064002D
:20053700751900C202751D00C203C204900097E4F02243AC0153ADFEA2AF9205C2AF75C795
:20055700AA75C755759101A20592AF43AC01A2AF9205C2AF75C7AA75C755759100A205925B
:20057700AF43B11053B2EFA2AF9205C2AF75C7AA75C755759101A20592AF43B110A2AF9217
:2005970005C2AF75C7AA75C755759100A20592AF43B10853B2F7A2AF9205C2AF75C7AA75BD
:2005B700C755759101A20592AF43B108A2AF9205C2AF75C7AA75C755759100A20592AF530C
:2005D700B3EF53B4EFC2942212060F43AC0153ADFE43B11053B2EF43B10853B2F7D2944346
:2005F700B31053B4EF2253E9FB43E94043EA1043EB10439B02D2AF22539BFD227518017558
:200617001900751A3B751B00C201C202751E97751F00851E82851F83E0F51CE51DB4010017
:200637009203C204E51C339294F51CD288C289D2A8D2AF22C2A8D20222C021C0E0C0F0C0CA
:2006570082C083C007C006C005C004C003C002C001C000C0D075D00085912475910053EC4E
:20067700EF852491208405120613800312064BD0D0D000D001D002D003D004D005D006D04B
:2006970007D083D082D0F0D0E0D02132C0E0C082C083C007C006C0D075D000E518A2833328
:2006B700F5189201300162851A82851B83E518F07401F518251AF51AE4351BF51B05197419
:2006D7005CB5190474018001E4FFA202E4334207EF24FF9202A20272039203E4B51D047476
:2006F700018001E4FFA203E4334207EF24FF92032003167401251EF51EE4351FF51F151D50
:20071700851E82851F83E0F51C200202D204D0D0D006D007D083D082D0E03230040C30B097
:0B07370009E51C339294F51CC204225B
:16074200E493A3E493F58222AF8243078075C7AA75C7558F9F22B5
:06009A00752B00755100FA
:20075800AF82BF3000400DEF24C640088F06EE24D0F58222BF4100400DEF24B940088F06ED
:2007780074C92EF58222BF6100400BEF2485400674A92FF5822275827822E4F525F527F58F
:2007980028F529F52AF52B2285825685835785F058E4FCF559F55AF55BF55CC3E55995520B
:2007B800E55A9553E55B9554E55C9555400302099CE5592556FDE55A3557FEAF588D828E99
:2007D800838FF0120C32FF700475820122E5257006F550F551803C74FF25255036E52524EA
:2007F800F440308F82C007120758AE82D0078E04BE780475820022E55170048C4F800BE553
:200818004FC454F0FE4C2550F550E551B40100E433F551E52524F45003020983E525240BE1
:2008380083F582E525241083F583E4735C9696A3A3A3A3C5D1F5292D0808080808080808E1
:2008580008080909BF0D03020987BF0A03020987BF3A27E4F526F52CF527F528F5637564F5
:2008780020F56590002D75F040C004120AFCD004E4F54DF54E052502098775820022E5268B
:20089800C454F04CF5260525020987AE27E528C454F0CEC4CE6ECE54F0CE6EFF8C037D0004
:2008B800EB4EF527ED4FF5280525020987EC6004758200220525020987EC24FA500475823C
:2008D80000228C2CE526700675250A020987E52624DF5004758200220525020987AE4DE558
:2008F8004EC313CE13CEEE242DF9E7C454F04CF7054DE4B54D02054EAE4DE54EC313CE1331
:20091800CEFFAB267D00C3EE9BEF9D40620525805E0525805AAE267F00EE2EFEEF33FFEEA2
:20093800B54D06EFB54E02800475820022E5506004758200227402B52C15AF2D7E00AB2EB5
:200958007D00EB4EF529ED4FF52A752B0180177404B52C12AF2D7E00AB2E7D00EB4EF529A6
:20097800ED4FF52A8E2B7525008004758200220559E4B5590C055AB55A07055BB55B0205CC
:080998005C0207B37582012225
:060000000200410206A30C
:01000B0032C2
:0100130032BA
:01001B0032B2
:0100230032AA
:01002B0032A2
:01003300329A
:03003B000206506A
:0300A00002003E1D
:03003E000209FBB9
:2009A000AE82AF83859124759100C2CFC2CAD2C875C90043C91043C92043C9408E638F6428
:2009C00075650075660090001FE4F5F0120B36AC82AD83AEF0FF74FFC39CF55D74FF9DF573
:2009E0005EE49EF55FE49FF560855ECD855DCC75CBFF75CAFFD2CA852491221205371205B3
:200A0000491205FD9002581209A01200A3A2AF9205C2AF75C7AA75C755439F01A20592AF84
:200A2000756100756200200203020A95E5197003020A9512060F1200C685191190003B12A6
:200A400000CE858261E5617014900D6275F0801203A585198212040F1203A58020C2AF7573
:200A6000620012026A858262E5627009900D7575F0801203A5D2AF9007D01209A01200C641
:200A800075190075145C90009775F000120478751D5B1205FD12073220CF03020A26120542
:070AA000DF75820002074A26
:200D62004D7367207061727365206572722E4C656E3D004D736720657865632065727200C7
:06007000E478FFF6D8FD64
:200AA700AD82AE83AFF08D688E698F6A85636B85646C85656DA866A9678803890418B8FF47
:200AC7000119EB4C6025856B82856C83856DF0120C32FCA385826B85836C8D828E838FF0FD
:150AE700EC120B1BA3AD82AE8380CE856882856983856AF022A4
:1F0AFC00AC82AD83AE64AF65BE0004EF600C1F0FE563120B1BA3DEFADFF88C828D8322FA
:20004E007900E94400601B7A00900D8278F375A000E493F2A308B8000205A0D9F4DAF275D7
:02006E00A0FFF1
:1B0B1B0020F71130F6138883A88220F509F6A8837583002280FEF280F5F022D9
:200B3600AAF0FBE5828563F0A4FCADF0E5838563F0A42DFDE435F0FEE5828564F0A42DFD6B
:200B5600E5F03EFEE433FFEA8563F0A42EFEE5F03FFFE5838564F0A42EFEE5F03FFFE58228
:200B76008565F0A42EFEE5F03FFFEB8563F0A42FFFEA8564F0A42FFFE5838565F0A42FFF64
:0E0B9600E5828566F0A42F8EF08D838C82227E
:200BA400E563456460467A01E56325E0F563E564334012F564E5829563E583956440030A46
:200BC40080E6C3E56413F564E56313F563C3E5829563F5F0E58395644005F58385F082C3A1
:0D0BE400E56413F564E56313F563DAE122BF
:200076007800E84400600A790175A000E4F309D8FC78F2E84400600C7901900001E4F0A395
:04009600D8FCD9FABF
:200BF1007A10E4FBFCE58225E0F582E58333F583EB33FBEC33FCEB9563F5F0EC9564400662
:090C1100FCABF0438201DADD22A4
:180C1A00AA82AB83120C326003A380F8C3E5829AF582E5839BF58322C2
:0D00410075816D120CBCE582600302003E6B
:1C0C320020F71430F6148883A88220F507E6A88375830022E280F7E49322E022D1
:200C4E00C2D5E58330E70DD2D5E4C39582F582E49583F583E56430E70BE4C39563F563E4CD
:160C6E009564F564120BA430D50BE4C39582F582E49583F5832282
:200C8400C2D5E58330E70DD2D5E4C39582F582E49583F583E56430E70DB2D5E4C39563F555
:180CA40063E49564F564120BF130D50BE4C39582F582E49583F58322B6
:040CBC00758200221B
:00000001FF
