:2000A300A2AF9203C2AF75C7AA75C755439F01A20392AFE4F508F509F50A900005F0F5103E
:2000C300C20022E4F50AF508F50922858212858313E4F50AF508F50974A42511400475829E
:2000E3000022851208851309850882850983E0F50A7469B50A0280467470B50A02803F7460
:20010300A0B50A02803C74A3B50A02803174ABB50A02802A74AEB50A7474012508FEE4359E
:2001230009FF8E608F6175620075630475640090000175F000120A0CD20075820122758249
:20014300012274062508F50BE43509F50C12070FAD0BAE0C7F00754F50E4F550F551F552CC
:200163008D828E838FF012071DE582FE701C900C2575F080C0061203A5AC0BAD0C7F008C15
:20018300828D838FF01203A5D0068E8222900C3575F0801203A5850A8212040F1203A575B4
:2001A30082002285240E85250F7F00C3EF9523505775AF21850EA6850FA7EF242AF987061C
:2001C3008EAE75C7AA75C75543A40175AF00EEB5AE02800280FE7443B59F0280FEAD0EAE16
:2001E3000F74012DF50EE43EF50F900003E0FDA3E0FEEDB50E0FEEB50F0B900C3E75F080F6
:200203001203A580030F80A374052508FEE43509FF8E828F83E0602B850882850983A3A3B4
:20022300A3A3A3E0FF7E001FBFFF011EAC107D00ECB50706EDB506028009900C4775F08097
:200243001203A5850882850983A3A3A3A3A3E0F510900C5675F0801203A585108212040FE0
:200263001203A5758201227469B50A0302034C7470B50A0302035674A0B50A0302035A740D
:20028300A3B50A02801F74ABB50A0302033974AEB50A0280030203A1900C6475F080120333
:2002A300A575820122900C6E75F0801203A520000D900C7875F0801203A575820022A2AF89
:2002C3009203C2AF75C7AA75C75543A501A20392AF75AEFF75AF22E4F50EF50F900003E009
:2002E300FEA3E0A2E7CE33CE33CE5401FFAC0EAD0FC3EC9EED9F5031E50E75F080A4FF8FF3
:20030300A6AE0EE50F5401A2E0CE13CE13CEFF8FA775C7AA75C75543A401AE0EAF0F74019A
:200323002EF50EE43FF50F80B3900C8575F0801203A575820122900C8D75F0801203A57518
:2003430082001206C7758201227582021206C7758201227582012220000D900C7875F080ED
:200363001203A575820022E5296030900C9D75F0801203A5900002E0FF7E001FBFFF011E46
:20038300AC107D00ECB50706EDB506028009900CB075F0801203A5758201220201A675829B
:2003A3000022AD82AE83AFF090000575F000C007C006C005120B7FAB82D005D006D0078DF5
:2003C300828E838FF0C007C006C005C003120B7FAA82D003D005D006D007EA04FCC39B503E
:2003E3000280078B027432C39AFCECFA601DEB2405FBE43400F97C008D608E618F628A632C
:200403008C648B8289838CF0020A0C22AF827E007560648E618F828E83C007C006120BE98E
:20042300AC82D006D00774302C900037F07560647561008F828E83C007C006120BB37560F4
:200443000A756100120BE9AC82D006D00774302C900038F075600A7561008F828E83120B5C
:20046300B3AE8274302E900039F090003AE4F0900037F5F02285821585831685F017900049
:200483000575F000120B7FAB82AA147C00EA24FFF8EC34FFF98B067F00C3E89EE964808F1A
:2004A300F063F08095F0500FE51414FB2405F582E43400F583E4F0AD15AE16AF1775600560
:2004C3007561007562008B007900740128F563E439F5648D828E838FF0C004C003C002C055
:2004E30001C000120A0CD000D001D002D003D004900005E4F0EA24FFFEEC34FFFFC3E89E1B
:20050300E964808FF063F08095F05027EB2515FBE43516FFAE17EAC398FAEC99FCEA24FFDD
:14052300F561EC34FFF5627560008B828F838EF0020A6122F7
:200C2500696865785F7061727365722065727200556E6B6E436D643A006865784561726CF9
:200C450079006865784C696E7320736B6970642E00466C61736864206C696E65232E005314
:200C6500544152545F5345530045524153455F414C4C004E6F74496E53657373696F6E0076
:200C850045726173654F6B007265626F6F7420746F204150524F4D00416C6C206865784CAE
:200CA500696E657320726563762E004E6F7420616C6C204865784C696E7320666C617368EF
:020CC5006400C9
:20053700751900C2022243AC0153ADFEA2AF9203C2AF75C7AA75C755759101A20392AF4344
:20055700AC01A2AF9203C2AF75C7AA75C755759100A20392AF43B11053B2EFA2AF9203C27D
:20057700AF75C7AA75C755759101A20392AF43B110A2AF9203C2AF75C7AA75C75575910079
:20059700A20392AF43B10853B2F7A2AF9203C2AF75C7AA75C755759101A20392AF43B108AF
:2005B700A2AF9203C2AF75C7AA75C755759100A20392AF221205F343AC0153ADFE43B1104C
:2005D70053B2EF43B10853B2F72253E9FB43E94043EA1043EB10439B02D2AF22539BFD2248
:2005F700751801751900751A3B751B00C201C202D288C289D2A8D2AF22C2A8D20222C021E4
:20061700C0E0C0F0C082C083C007C006C005C004C003C002C001C000C0D075D00085911EC9
:2006370075910053ECEF851E912084051205F78003120610D0D0D000D001D002D003D0041F
:20065700D005D006D007D083D082D0F0D0E0D02132C0E0C082C083C007C006C0D075D00042
:20067700E518A28333F518920130012E851A82851B83E518F07401F518251AF51AE4351BDA
:20069700F51B0519745CB5190474018001E4FFA202E4334207EF24FF9202D0D0D006D007A3
:0806B700D083D082D0E0322292
:1606BF00E493A3E493F58222AF8243078075C7AA75C7558F9F2239
:06009A00752800754E0000
:2006D500AF82BF3000400DEF24C640088F06EE24D0F58222BF4100400DEF24B940088F0671
:2006F50074C92EF58222BF6100400BEF2485400674A92FF5822275827822E4F522F524F519
:2007150025F526F527F5282285825385835485F055E4FCF556F557F558F559C3E556954FB5
:20073500E5579550E5589551E55995524003020919E5562553FDE5573554FEAF558D828EC0
:20075500838FF0120B97FF700475820122E5227006F54DF54E803C74FF25225036E5222418
:20077500F440308F82C0071206D5AE82D0078E04BE780475820022E54E70048C4C800BE560
:200795004CC454F0FE4C254DF54DE54EB40100E433F54EE52224F45003020900E522240BFD
:2007B50083F582E522241083F583E473D9131320202020424E72A6AA07080808080808088D
:2007D50008080808BF0D03020904BF0A03020904BF3A27E4F523F529F524F525F560756193
:2007F50020F56290002A75F040C004120A61D004E4F54AF54B052202090475820022E5233F
:20081500C454F04CF5230522020904AE24E525C454F0CEC4CE6ECE54F0CE6EFF8C037D0016
:20083500EB4EF524ED4FF5250522020904EC6004758200220522020904EC24FA50047582D1
:2008550000228C29E523700675220A020904E52324DF5004758200220522020904AE4AE5F3
:200875004BC313CE13CEEE242AF9E7C454F04CF7054AE4B54A02054BAE4AE54BC313CE13C9
:20089500CEFFAB237D00C3EE9BEF9D40620522805E0522805AAE237F00EE2EFEEF33FFEE32
:2008B500B54A06EFB54B02800475820022E54D6004758200227402B52915AF2A7E00AB2B4B
:2008D5007D00EB4EF526ED4FF52775280180177404B52912AF2A7E00AB2B7D00EB4EF5263F
:2008F500ED4FF5278E287522008004758200220556E4B5560C0557B557070558B55802056B
:0809150059020730758201222E
:0600000002004102066847
:01000B0032C2
:0100130032BA
:01001B0032B2
:0100230032AA
:01002B0032A2
:01003300329A
:03003B00020615A5
:0300A00002003E1D
:03003E000209783C
:20091D00AE82AF8385911E759100C2CFC2CAD2C875C90043C91043C92043C9408E608F61B7
:20093D0075620075630090001FE4F5F0120A9BAC82AD83AEF0FF74FFC39CF55A74FF9DF59B
:20095D005BE49EF55CE49FF55D855BCD855ACC75CBFF75CAFFD2CA851E912212053712054B
:20097D003D1205E190025812091D1200A3A2AF9203C2AF75C7AA75C755439F01A20392AFB7
:20099D00755E00755F00300257E51960531205F31200C685191190003B1200CE85825EE5D3
:2009BD005E7014900CC775F0801203A585198212040F1203A58020C2AF755F0012026A854F
:2009DD00825FE55F7009900CDA75F0801203A5D2AF9007D012091D1200C67519001205E1C9
:0F09FD001206BE30CFA01205CB7582000206C7CE
:200CC7004D7367207061727365206572722E4C656E3D004D73672065786563206572720063
:06007000E478FFF6D8FD64
:200A0C00AD82AE83AFF08D658E668F6785606885616985626AA863A9648803890418B8FF03
:200A2C000119EB4C6025856882856983856AF0120B97FCA38582688583698D828E838FF043
:150A4C00EC120A80A3AD82AE8380CE8565828566838567F022E4
:1F0A6100AC82AD83AE61AF62BE0004EF600C1F0FE560120A80A3DEFADFF88C828D83223A
:20004E007900E94400601B7A00900CE7789775A000E493F2A308B8000205A0D9F4DAF275CF
:02006E00A0FFF1
:1B0A800020F71130F6138883A88220F509F6A8837583002280FEF280F5F02275
:200A9B00AAF0FBE5828560F0A4FCADF0E5838560F0A42DFDE435F0FEE5828561F0A42DFD10
:200ABB00E5F03EFEE433FFEA8560F0A42EFEE5F03FFFE5838561F0A42EFEE5F03FFFE582CA
:200ADB008562F0A42EFEE5F03FFFEB8560F0A42FFFEA8561F0A42FFFE5838562F0A42FFF0C
:0E0AFB00E5828563F0A42F8EF08D838C82221D
:200B0900E560456160467A01E56025E0F560E561334012F561E5829560E583956140030AF9
:200B290080E6C3E56113F561E56013F560C3E5829560F5F0E58395614005F58385F082C34E
:0D0B4900E56113F561E56013F560DAE12266
:200076007800E84400600A790175A000E4F309D8FC7896E84400600C7901900001E4F0A3F1
:04009600D8FCD9FABF
:200B56007A10E4FBFCE58225E0F582E58333F583EB33FBEC33FCEB9560F5F0EC9561400603
:090B7600FCABF0438201DADD2240
:180B7F00AA82AB83120B976003A380F8C3E5829AF582E5839BF58322FA
:0D00410075816A120C21E582600302003E09
:1C0B970020F71430F6148883A88220F507E6A88375830022E280F7E49322E0226D
:200BB300C2D5E58330E70DD2D5E4C39582F582E49583F583E56130E70BE4C39560F560E472
:160BD3009561F561120B0930D50BE4C39582F582E49583F58322BF
:200BE900C2D5E58330E70DD2D5E4C39582F582E49583F583E56130E70DB2D5E4C39560F5F7
:180C090060E49561F561120B5630D50BE4C39582F582E49583F58322F5
:040C210075820022B6
:00000001FF
