:16006200E493A3E493F58222AF8243078075C7AA75C7558F9F229C
:03000000020006F5
:03005F0002000399
:0300030002007880
:2000780053B3FD43B40253B3DF43B42053B3FE43B40143B30453B4FB43AC0153ADFEA2AF39
:200098009200C2AF75C7AA75C755759101A20092AF43AC01A2AF9200C2AF75C7AA75C75529
:2000B800759100A20092AF43B11053B2EFA2AF9200C2AF75C7AA75C755759101A20092AF92
:2000D80043B110A2AF9200C2AF75C7AA75C755759100A20092AF43B10853B2F7A2AF920075
:2000F800C2AF75C7AA75C755759101A20092AF43B108A2AF9200C2AF75C7AA75C755759149
:2001180000A20092AFA2849202A28492015003200210A2839291A2019290A2B09295A201C3
:080138009202A201929080E105
:06003500E478FFF6D8FD9F
:200013007900E94400601B7A00900144780175A000E493F2A308B8000205A0D9F4DAF2754E
:02003300A0FF2C
:20003B007800E84400600A790175A000E4F309D8FC7800E84400600C7900900001E4F0A3C3
:04005B00D8FCD9FAFA
:0D000600758120120140E5826003020003B5
:0401400075820022A2
:00000001FF
